:020000040800F2
:100000000000022045020008490200084D020008D5
:1000100051020008550200085902000800000000C3
:100020000000000000000000000000005D02000869
:100030006102000800000000650200086902000873
:100040006D0200086D0200086D0200086D020008D4
:100050006D0200086D0200086D0200086D020008C4
:100060006D0200086D0200086D0200086D020008B4
:100070006D0200086D0200086D0200086D020008A4
:100080006D0200086D0200086D0200086D02000894
:100090006D0200086D0200086D0200086D02000884
:1000A0006D0200086D0200086D0200086D02000874
:1000B000650C00086D0200086D0200086D02000862
:1000C0006D0200086D0200086D0200086D02000854
:1000D0006D0200086D0200086D0200086D02000844
:1000E0006D0200086D0200086D0200086D02000834
:1000F0006D0200086D0200086D0200086D02000824
:100100006D0200086D0200086D0200086D02000813
:100110006D0200086D0200086D0200086D02000803
:100120006D0200086D0200086D0200086D020008F3
:100130006D02000800000000000000006D020008D1
:100140006D0200086D0200086D0200086D020008D3
:100150006D0200086D0200086D0200086D020008C3
:100160006D0200086D0200086D0200086D020008B3
:100170006D0200086D020008000000000000000091
:100180006D0200086D02000800B583B0224B234ABF
:10019000002101E0196004339342FBD3204B214A34
:1001A000214803E011681960043304328342F9D313
:1001B00000F072F801A8694600F062F81B4B1C4D74
:1001C000ED1AAD1000241E4603E056F8243098477F
:1001D0000134A542F9DC174B174DED1AAD10002480
:1001E0001E4603E056F8243098470134A542F9DC56
:1001F0000198009900F02EFD0646104B104CE41AB1
:10020000A4101D4603E0013C55F824309847002C0B
:10021000F9DC304600F02CF8080000200C0000202B
:1002200000000020200D00080800002070020008D7
:1002300070020008700200087002000870020008D6
:1002400070020008FFF7A0BFFEE700BFFEE700BF97
:10025000FEE700BFFEE700BFFEE700BFFEE700BF0E
:10026000FEE700BFFEE700BFFEE700BFFEE700BFFE
:1002700008B500F015F800BF08B50120FFF7F8FF3A
:1002800001230360014B0B60704700BF000000209A
:1002900008B5FFF7F1FF00BF08B500F061FC08BD2D
:1002A000BFF34F8F044AD16801F4E061034B0B4365
:1002B000D360BFF34F8FFEE700ED00E00400FA05C6
:1002C00010B50446C378012B03D922488D21FFF7CE
:1002D000DFFF63780F2B03D91E488E21FFF7D8FF6D
:1002E000A3780F2B03D91B488F21FFF7D1FFE378A9
:1002F0001BB3194BDB68DB43C3F30223C3F10402D6
:10030000D2B20F2141FA03F3617801FA02F2D2B2BC
:10031000A07803EA000111430901C9B222780F4B0A
:100320001A4482F800132278510902F01F020120BA
:1003300000FA02F243F8212010BD2378590903F096
:100340001F03012202FA03F32031044A42F821304C
:1003500010BD00BF8C0C000800ED00E000E100E0E3
:100360002DE9F84F05460E464F4B98422BD003F52A
:100370008063984227D003F58063984223D003F529
:10038000806398421FD003F5806398421BD003F529
:100390008063984217D003F58063984213D003F529
:1003A000806398420FD003F5806398420BD003F529
:1003B0008063984207D003F58063984203D03B489E
:1003C000CF21FFF765FF33881BB93848D021FFF7ED
:1003D0005FFF3379032B03D93448D121FFF758FF4E
:1003E000F379022B03D93148D221FFF751FF0024C2
:1003F00001274FF00308DFF8B49050E007FA04F348
:1004000032681A409A4249D12B684FEA440A08FAE6
:100410000AFB6FEA0B0B03EA0B032B602A683379A4
:1004200003FA0AF313432B603379013BDBB2012B50
:1004300025D87379032B03D94846E421FFF728FF19
:10044000AB680BEA0303AB60AA68737903FA0AF39B
:100450001343AB60B379012B03D94846EB21FFF777
:1004600017FF6A68A3B207FA03F122EA01026A6081
:100470006A68B17901FA03F39BB213436B60EA68CF
:10048000A3B25B0008FA03F322EA0303EB60EB6814
:10049000F27902FA0AFA43EA0A03EB6001340F2CFC
:1004A000ACD9BDE8F88F00BF00000240A80C0008DE
:1004B00070B504460D461646344B98422CD003F5D1
:1004C0008063984228D003F58063984224D003F5D6
:1004D0008063984220D003F5806398421CD003F5D6
:1004E0008063984218D003F58063984214D003F5D6
:1004F0008063984210D003F5806398420CD003F5D6
:100500008063984208D003F58063984204D0204865
:100510004FF4E571FFF7BCFE6B1E9BB2012B28D98F
:10052000042D26D0082D24D0102D22D0202D20D00F
:10053000402D1ED0802D1CD0B5F5807F19D0B5F58B
:10054000007F16D0B5F5806F13D0B5F5006F10D0D1
:10055000B5F5805F0DD0B5F5005F0AD0B5F5804FD9
:1005600007D0B5F5004F04D0094840F2CB11FFF792
:100570008FFE012E04D906484FF4E671FFF788FE7E
:100580000EB1258370BD658370BD00BF00000240C1
:10059000A80C000838B504460D461A4B98422CD0DA
:1005A00003F58063984228D003F58063984224D0F5
:1005B00003F58063984220D003F5806398421CD0F5
:1005C00003F58063984218D003F58063984214D0F5
:1005D00003F58063984210D003F5806398420CD0F5
:1005E00003F58063984208D003F58063984204D0F5
:1005F000054840F2F311FFF74BFE63695D4065610A
:1006000038BD00BF00000240A80C000838B5044601
:100610000D460E4B034003B920B90D4840F2F95185
:10062000FFF736FE012D04D9094840F2FB51FFF7D0
:100630002FFE25B1074B1A6B14431C6338BD054BC5
:100640001A6B22EA04041C6338BD00BF00E80B816A
:10065000D00C00080038024038B504460D460E4B59
:10066000184200D120B90D4840F26961FFF710FE31
:10067000012D04D9094840F26A61FFF709FE25B14E
:10068000074B1A6C14431C6438BD054B1A6C22EAE4
:1006900004041C6438BD00BF00360109D00C0008FA
:1006A0000038024038B504460D46484B984237D0D2
:1006B000B0F1804F34D0A3F57C43984230D003F59D
:1006C000806398422CD003F58063984228D003F5CC
:1006D0008063984224D003F58063984220D003F5CC
:1006E000704398421CD003F57053984218D003F51C
:1006F0008063984214D003F58063984210D0A3F52C
:10070000983398420CD003F58063984208D003F5E3
:100710008063984204D02E484FF49371FFF7B8FDE0
:100720006B8863B1102B0AD0202B08D0402B06D049
:10073000602B04D0264840F22711FFF7A9FD2B8932
:1007400053B1B3F5807F07D0B3F5007F04D02048C4
:100750004FF49471FFF79CFD23889BB21B4A94428F
:1007600012D002F5806294420ED0B4F1804F0BD0CB
:10077000A2F58032944207D002F58062944203D001
:1007800002F58062944203D123F070036A88134318
:10079000104A944208D002F58062944204D023F4B7
:1007A00040739BB22A89134323806B68E3622B88D2
:1007B0002385064B9C4203D003F580639C4201D104
:1007C000AB7A23860123A38238BD00BF000001401D
:1007D000F80C00080010004038B504460D46284BC0
:1007E000984237D0B0F1804F34D0A3F57C43984283
:1007F00030D003F5806398422CD003F58063984293
:1008000028D003F58063984224D003F58063984292
:1008100020D003F5704398421CD003F570539842E2
:1008200018D003F58063984214D003F58063984292
:1008300010D0A3F5983398420CD003F5806398420A
:1008400008D003F58063984204D00E484FF4157128
:10085000FFF71EFD012D04D90A4840F25521FFF78C
:1008600017FD2DB123889BB243F00103238038BDCF
:10087000238823F001031B041B0C238038BD00BF19
:1008800000000140F80C000870B504460D461646FD
:100890002B4B984237D0B0F1804F34D0A3F57C4336
:1008A000984230D003F5806398422CD003F58063E2
:1008B000984228D003F58063984224D003F58063E2
:1008C000984220D003F5704398421CD003F5705332
:1008D000984218D003F58063984214D003F58063E2
:1008E000984210D0A3F5983398420CD003F580635A
:1008F000984208D003F58063984204D0114840F62E
:100900004811FFF7C5FC15F47F4F00D125B90D48FC
:1009100040F64911FFF7BCFC012E04D9094840F606
:100920004A11FFF7B5FC26B1A3899BB21D43A581EF
:1009300070BDA389ED43ADB21D40A58170BD00BF60
:1009400000000140F80C000838B504460D462E4B57
:10095000984237D0B0F1804F34D0A3F57C43984211
:1009600030D003F5806398422CD003F58063984221
:1009700028D003F58063984224D003F58063984221
:1009800020D003F5704398421CD003F57053984271
:1009900018D003F58063984214D003F58063984221
:1009A00010D0A3F5983398420CD003F58063984299
:1009B00008D003F58063984204D0144840F6D7115C
:1009C000FFF766FC6B1E9BB2012B10D9042D0ED0D5
:1009D000082D0CD0102D0AD0202D08D0402D06D087
:1009E000802D04D0094840F6D811FFF751FC238A26
:1009F000A2892A401D4202D01AB9002038BD002029
:100A000038BD012038BD00BF00000140F80C0008CF
:100A100038B504460D461F4B984237D0B0F1804F91
:100A200034D0A3F57C43984230D003F580639842DC
:100A30002CD003F58063984228D003F58063984258
:100A400024D003F58063984220D003F57043984288
:100A50001CD003F57053984218D003F58063984278
:100A600014D003F58063984210D0A3F598339842D0
:100A70000CD003F58063984208D003F58063984258
:100A800004D0054840F6FE11FFF702FCED43ADB27D
:100A9000258238BD00000140F80C000882B0002318
:100AA000019300932A4B1A6842F480321A601A4666
:100AB000136803F400330093019B01330193009BFF
:100AC0001BB9019BB3F5A04FF2D1214B1B6813F466
:100AD000003F02D00123009301E000230093009B1C
:100AE000012B32D11A4B1A6C42F080521A64194A07
:100AF000116841F4404111609A689A609A6842F422
:100B000000429A609A6842F4A0529A60124A5A606F
:100B10001A6842F080721A601A46136813F0007F58
:100B2000FBD040F205720D4B1A60A3F580639A6802
:100B300022F003029A609A6842F002029A601A4612
:100B4000936803F00C03082BFAD102B0704700BF82
:100B5000003802400070004019544007003C024039
:100B600008B50D4B1A6842F001021A600021996025
:100B70001A6822F0847222F480321A60074A5A609E
:100B80001A6822F480221A60D960FFF787FF4FF0BD
:100B90000062034B9A6008BD003802401030002408
:100BA00000ED00E000B585B001200146FFF754FDDF
:100BB00049F64043ADF804300023ADF806304FF459
:100BC000FA720292ADF80C308DF80E304FF0804082
:100BD00001A9FFF767FD4FF080400121FFF7FCFD01
:100BE0004FF0804001210A46FFF74EFE05B05DF848
:100BF00004FB00BF70B582B004200121FFF706FDA1
:100C00000224009401258DF804508DF80540064E0D
:100C100030466946FFF7A4FB304621462A46FFF7D7
:100C200047FC02B070BD00BF0008024000B583B0B1
:100C30001C238DF8043000238DF8053001238DF836
:100C400006308DF8073001A8FFF73AFB03B05DF8D6
:100C500004FB00BF08B5FFF7CDFFFFF7A3FFFFF7C9
:100C6000E5FFFEE708B54FF080400121FFF76CFE7D
:100C700040B14FF080400121FFF7CAFE0248022137
:100C8000FFF788FC08BD00BF000802402E2E2F731E
:100C9000797374656D2F7372632F444556494345CC
:100CA0002F6D6973632E63002E2E2F737973746515
:100CB0006D2F7372632F4445564943452F73746DEE
:100CC0003332663478785F6770696F2E6300000096
:100CD0002E2E2F73797374656D2F7372632F4445B5
:100CE000564943452F73746D3332663478785F729A
:100CF00063632E63000000002E2E2F7379737465DA
:100D00006D2F7372632F4445564943452F73746D9D
:100D10003332663478785F74696D2E6300000000AA
:080D20000800002000000000A3
:040000050800018965
:00000001FF
