:020000040800F2
:1000000000000220490200084D0200084F020008CB
:1000100051020008530200085502000800000000C9
:10002000000000000000000000000000570200086F
:1000300059020008000000005B0200085D02000891
:100040005F0200085F0200085F0200085F0200080C
:100050005F0200085F0200085F0200085F020008FC
:100060005F0200085F0200085F0200085F020008EC
:100070005F0200085F0200085F0200085F020008DC
:100080005F0200085F0200085D0800085F020008C8
:100090005F0200085F0200085F0200085F020008BC
:1000A0005F0200085F0200085F0200085F020008AC
:1000B0005F0200085F0200085F0200085F0200089C
:1000C0005F0200085F0200085F0200085F0200088C
:1000D0005F0200085F0200085F0200085F0200087C
:1000E0005F0200085F0200085F0200085F0200086C
:1000F0005F0200085F0200085F0200085F0200085C
:100100005F0200085F0200085F0200085F0200084B
:100110005F0200085F0200085F0200085F0200083B
:100120005F0200085F0200085F0200085F0200082B
:100130005F02000800000000000000005F020008ED
:100140005F0200085F0200085F0200085F0200080B
:100150005F0200085F0200085F0200085F020008FB
:100160005F0200085F0200085F0200085F020008EB
:100170005F0200085F0200080000000000000000AD
:100180005F0200085F02000807B5244A244B9A4228
:100190004FF0000302D242F8043BF7E7214A22491C
:1001A0009818884204D22149595899500433F5E7E8
:1001B00000F062F8684601A900F056F81C4D1D4B8E
:1001C000ED1AAD1000241E46AC4204DA56F8242085
:1001D00090470134F8E7184B184DED1AAD10002484
:1001E0001E46AC4204DA56F8242090470134F8E762
:1001F000134D144C9DE8030000F099FB641BA41000
:10020000064605EB8405002C04DD55F8043D013C51
:100210009847F8E7304600F023F800BF08000020B8
:100220000C00002000000020080000202011000821
:100230006002000860020008600200086002000816
:100240006002000860020008FFF79EBFFEE7FEE7BD
:10025000FEE7FEE7FEE7FEE7FEE7FEE7FEE7FEE776
:1002600008B500F017F8000001230360014B0B6094
:10027000704700BF0000002008B500F0F5F9044BFE
:10028000D3F8882042F47002C3F8882008BD00BF6C
:1002900000ED00E0BFF34F8F044A054BD16801F435
:1002A000E0610B43D360BFF34F8FFEE700ED00E04A
:1002B0000400FA05C278037810B50AB3164A4478E8
:1002C000D268D243C2F30222C2F10401C9B204FAD5
:1002D00001F10F2444FA02F28478C9B222400A43A1
:1002E00003F1604303F561431201D2B283F80023A6
:1002F00003780122590903F01F0302FA03F306E011
:100300005909012203F01F0302FA03F32031034AC3
:1003100042F8213010BD00BF00ED00E000E100E038
:1003200043680A6823F0407323F4807313430A7907
:1003300043EA02234360CA680B691A438B6810B50D
:100340001A438468084B234013434A7943EA420323
:1003500083600B7DC26A013B22F47002DBB242EA89
:100360000353C36210BD00BFFDF7FFC0074A084B2F
:10037000516810B50B4090E812000C438168C068CA
:10038000214301430B43536010BD00BF00230140D4
:10039000E030FCFF836811B143F0010301E023F07A
:1003A000010383607047092970B50DD9A1F10A04D2
:1003B00004EB4404C6680725A54026EA0505A340CA
:1003C00045EA0304C4600BE0066901EB410407251C
:1003D000A54026EA050503FA04F445EA040303618F
:1003E000062A0CD8013A446B02EB82021F23934089
:1003F00024EA030301FA02F21A43426370BD0C2A95
:100400000CD8073A046B02EB82021F23934024EAC4
:10041000030301FA02F21A43026370BD0D3AC46A83
:1004200002EB82021F23934024EA030301FA02F243
:100430001A43C26270BDC06C80B270470123C9B25A
:1004400003FA01F143680AB1194301E023EA01010B
:10045000416070476FEA112101607047094B30B568
:100460001A6840F6FE75854022EA050591E81400F9
:1004700014438A68C96822430A4302FA00F02843F9
:10048000186030BD00740040064B012219B1196894
:1004900082400A4303E01968824021EA02021A609E
:1004A000704700BF0074004082B000230193054BE9
:1004B0000193019B083318440190019B196002B01D
:1004C000704700BF007400402DE9F0410F68002321
:1004D00001229A4002EA0705954230D15A000324CE
:1004E00006689440E443264006600E79D0F800C0C8
:1004F00006FA02F8013E48EA0C0C012EC0F800C0D2
:1005000014D8866891F805C02640866086680CFA83
:1005100002FC4CEA06068660466826EA0505456048
:100520008D7946689D40ADB235434560C5682C4025
:10053000C460CD79C46805FA02F22243C260013377
:10054000102BC5D1BDE8F0814FF6FF730360002387
:10055000037143718371C3717047436959404161AD
:1005600070470000044B1A6B09B1104301E022EA06
:1005700000001863704700BF00380240044B1A6C3B
:1005800009B1104301E022EA00001864704700BF7F
:1005900000380240044B5A6C09B1104301E022EAD2
:1005A00000005864704700BF003802401C4A0388AE
:1005B00090429BB212D002F5806290420ED0B0F110
:1005C000804F0BD0A2F58032904207D002F58062B6
:1005D000904203D002F58062904203D14A8823F012
:1005E000700313430F4A904208D002F58062904294
:1005F00004D023F440730A899BB2134303804B68F1
:10060000C3620B880385064B984203D003F58063D1
:10061000984201D18B7A038601238382704700BF01
:1006200000000140001000404FF0FF334360002302
:1006300003800381438083727047038819B19BB2A2
:1006400043F0010303E023F001031B041B0C0380B0
:100650007047838823F070031B041B0C83808388FE
:100660009BB2194381807047374BD3F8882042F4FE
:100670007002C3F88820354B1A6842F001021A60F4
:1006800000229A60196821F0847121F48031196088
:100690002F495960196882B021F480211960DA600D
:1006A000009201921A6842F480321A60274B1A684D
:1006B00002F400320192009A01320092019A1AB9B2
:1006C000009AB2F5A04FF1D11B6813F4003318BFA4
:1006D00001230193019B012B05D01B4B4FF00062BE
:1006E0009A6002B07047194B1A6C42F080521A643B
:1006F000184A116841F4404111609A689A609A68FA
:1007000042F440429A609A6842F4C0529A60124A97
:100710005A601A6842F080721A6019680B4A89019F
:10072000FBD50E4B40F205611960936823F003037B
:100730009360936843F002039360044B9B6803F05B
:100740000C03082BF9D1C8E700ED00E000380240A7
:10075000103000240070004008544008003C024063
:1007600008B54FF480700121FFF714FF4FF00050DF
:100770000121FFF703FF01200146FFF7F3FE0420EC
:100780000121FFF7EFFE02200121BDE80840FFF73D
:10079000F5BE0000F7B5184E6846FFF7D5FE0024F9
:1007A000012502236946304600938DF804508DF8E8
:1007B00006408DF807408DF80550FFF785FE684626
:1007C000FFF7C2FE0327102369460C4800938DF8FB
:1007D00004708DF80740FFF777FE6846FFF7B4FE18
:1007E0003046694600958DF804708DF80740FFF794
:1007F0006BFE03B0F0BD00BF0008024000000240E5
:1008000030B585B00D4C01A8FFF70EFFD123029340
:1008100001250023204601A9ADF80C30ADF80630C3
:10082000ADF80450FFF7C2FE20462021FFF711FF6C
:1008300020462946FFF701FF05B030BD0004004007
:1008400007B512238DF8043001A801238DF8073075
:10085000FFF730FD03B05DF804FB000010B5104C4D
:1008600010480221FFF779FE2046FFF7E4FD07EE6E
:10087000900AF8EE677A17EE900A00F0CBF90022A2
:10088000094B00F01BFA00F02BFC81B20020FFF7AF
:100890000BFE204640F20521BDE81040FFF7DABD0F
:1008A00000200140000802400000F83F70B58AB007
:1008B0000024164E00946846019402940394FFF7B6
:1008C00055FD4FF080530125069330464FF00063ED
:1008D00004A9079304948DF814408DF815400894EA
:1008E0008DF82450FFF71CFD234630462A460A2186
:1008F000FFF759FD30462A4640F20521FFF79EFDDD
:1009000030462946FFF746FD0AB070BD0020014081
:100910001FB5002420466946009401940394FFF714
:100920009DFD20460121FFF7AFFD04B010BD08B5C5
:10093000FFF716FFFFF784FFFFF72CFFFFF760FFBD
:10094000FFF7B4FFFFF7E4FFFEE7000081F000418E
:1009500002E000BF83F0004330B54FEA41044FEAA4
:10096000430594EA050F08BF90EA020F1FBF54EA3F
:10097000000C55EA020C7FEA645C7FEA655C00F0DB
:10098000E2804FEA5454D4EB5555B8BF6D420CDDAC
:100990002C4480EA020281EA030382EA000083EA2F
:1009A000010180EA020281EA0303362D88BF30BDCF
:1009B00011F0004F4FEA01314FF4801C4CEA113125
:1009C00002D0404261EB410113F0004F4FEA033384
:1009D0004CEA133302D0524263EB430394EA050F0F
:1009E00000F0A780A4F10104D5F1200E0DDB02FA7E
:1009F0000EFC22FA05F2801841F1000103FA0EF212
:100A0000801843FA05F359410EE0A5F120050EF1D7
:100A1000200E012A03FA0EFC28BF4CF0020C43FA08
:100A200005F3C01851EBE37101F0004507D54FF015
:100A3000000EDCF1000C7EEB00006EEB0101B1F565
:100A4000801F1BD3B1F5001F0CD349085FEA3000AB
:100A50004FEA3C0C04F101044FEA445212F5800FB6
:100A600080F09A80BCF1004F08BF5FEA500C50F153
:100A7000000041EB045141EA050130BD5FEA4C0C36
:100A8000404141EB010111F4801FA4F10104E9D1BF
:100A900091F0000F04BF01460020B1FA81F308BFB6
:100AA0002033A3F10B03B3F120020CDA0C3208DD82
:100AB00002F1140CC2F10C0201FA0CF021FA02F15D
:100AC0000CE002F11402D8BFC2F1200C01FA02F1CD
:100AD00020FA0CFCDCBF41EA0C019040E41AA2BFF2
:100AE00001EB0451294330BD6FEA04041F3C1CDABA
:100AF0000C340EDC04F11404C4F1200220FA04F0DA
:100B000001FA02F340EA030021FA04F345EA030183
:100B100030BDC4F10C04C4F1200220FA02F001FA45
:100B200004F340EA0300294630BD21FA04F02946C7
:100B300030BD94F0000F83F4801306BF81F4801160
:100B40000134013D4EE77FEA645C18BF7FEA655CD3
:100B500029D094EA050F08BF90EA020F05D054EAA5
:100B6000000C04BF1946104630BD91EA030F1EBFAA
:100B70000021002030BD5FEA545C05D140004941AE
:100B800028BF41F0004130BD14F580043CBF01F5A1
:100B9000801130BD01F0004545F0FE4141F4700187
:100BA0004FF0000030BD7FEA645C1ABF1946104662
:100BB0007FEA655C1CBF0B46024650EA013406BF63
:100BC00052EA033591EA030F41F4002130BD00BF22
:100BD00090F0000F04BF0021704730B54FF48064DF
:100BE00004F132044FF000054FF0000150E700BF60
:100BF00090F0000F04BF0021704730B54FF48064BF
:100C000004F1320410F0004548BF40424FF00001AB
:100C10003EE700BF42004FEAE2014FEA31014FEAEE
:100C200002701FBF12F07F4393F07F4F81F060513D
:100C3000704792F0000F14BF93F07F4F704730B5AC
:100C40004FF4607401F0004521F0004120E700BF3F
:100C500050EA010208BF704730B54FF000050AE0C6
:100C600050EA010208BF704730B511F0004502D5C7
:100C7000404261EB41014FF4806404F132045FEAC9
:100C8000915C3FF4DCAE4FF003025FEADC0C18BF6E
:100C900003325FEADC0C18BF033202EBDC02C2F164
:100CA000200300FA03FC20FA02F001FA03FE40EAF6
:100CB0000E0021FA02F11444C1E600BF70B54FF0F6
:100CC000FF0C4CF4E06C1CEA11541DBF1CEA1355D8
:100CD00094EA0C0F95EA0C0F00F0DEF82C4481EA40
:100CE000030621EA4C5123EA4C5350EA013518BF60
:100CF00052EA033541F4801143F4801338D0A0FB4D
:100D000002CE4FF00005E1FB02E506F00042E0FBF9
:100D100003E54FF00006E1FB03569CF0000F18BFFF
:100D20004EF0010EA4F1FF04B6F5007F64F54074A7
:100D300004D25FEA4E0E6D4146EB060642EAC6213A
:100D400041EA55514FEAC52040EA5E504FEACE2EA7
:100D5000B4F1FD0C88BFBCF5E06F1ED8BEF1004FAA
:100D600008BF5FEA500E50F1000041EB045170BD26
:100D700006F0004646EA010140EA020081EA03016A
:100D8000B4EB5C04C2BFD4EB0C0541EA045170BD66
:100D900041F480114FF0000E013C00F3AB8014F1E0
:100DA000360FDEBF002001F0004170BDC4F1000429
:100DB000203C35DA0C341BDC04F11404C4F12005AA
:100DC00000FA05F320FA04F001FA05F240EA020005
:100DD00001F0004221F0004110EBD37021FA04F63B
:100DE00042EB06015EEA430E08BF20EAD37070BDF5
:100DF000C4F10C04C4F1200500FA04F320FA05F054
:100E000001FA04F240EA020001F0004110EBD37055
:100E100041F100015EEA430E08BF20EAD37070BDC5
:100E2000C4F1200500FA05F24EEA020E20FA04F39E
:100E300001FA05F243EA020321FA04F001F000414D
:100E400021FA04F220EA020000EBD3705EEA430EBE
:100E500008BF20EAD37070BD94F0000F0FD101F0ED
:100E60000046400041EB010111F4801F08BF013C26
:100E7000F7D041EA060195F0000F18BF704703F064
:100E80000046520043EB030313F4801F08BF013DEB
:100E9000F7D043EA0603704794EA0C0F0CEA1355A7
:100EA00018BF95EA0C0F0CD050EA410618BF52EA61
:100EB0004306D1D181EA030101F000414FF0000067
:100EC00070BD50EA410606BF1046194652EA430675
:100ED00019D094EA0C0F02D150EA013613D195EAE9
:100EE0000C0F05D152EA03361CBF104619460AD131
:100EF00081EA030101F0004141F0FE4141F470013B
:100F00004FF0000070BD41F0FE4141F4780170BD2A
:100F100070B54FF0FF0C4CF4E06C1CEA11541DBF8F
:100F20001CEA135594EA0C0F95EA0C0F00F0A7F891
:100F3000A4EB050481EA030E52EA03354FEA0131BE
:100F400000F088804FEA03334FF0805545EA1313D1
:100F500043EA12634FEA022245EA111545EA106599
:100F60004FEA00260EF000419D4208BF964244F130
:100F7000FD0404F5407402D25B084FEA3202B61A4F
:100F800065EB03055B084FEA32024FF480104FF423
:100F9000002CB6EB020E75EB030E22BFB61A754697
:100FA00040EA0C005B084FEA3202B6EB020E75EB2A
:100FB000030E22BFB61A754640EA5C005B084FEA92
:100FC0003202B6EB020E75EB030E22BFB61A75465F
:100FD00040EA9C005B084FEA3202B6EB020E75EB6A
:100FE000030E22BFB61A754640EADC0055EA060E2B
:100FF00018D04FEA051545EA16754FEA06164FEA6E
:10100000C30343EA52734FEAC2025FEA1C1CC0D119
:1010100011F4801F0BD141EA00014FF000004FF0A6
:10102000004CB6E711F4801F04BF01430020B4F167
:10103000FD0C88BFBCF5E06F3FF6AFAEB5EB030C1F
:1010400004BFB6EB020C5FEA500C50F1000041EB1C
:10105000045170BD0EF0004E4EEA113114EB5C04E9
:10106000C2BFD4EB0C0541EA045170BD41F48011BC
:101070004FF0000E013C90E645EA060E8DE60CEAC4
:10108000135594EA0C0F08BF95EA0C0F3FF43BAFE1
:1010900094EA0C0F0AD150EA01347FF434AF95EA98
:1010A0000C0F7FF425AF104619462CE795EA0C0F7C
:1010B00006D152EA03353FF4FDAE1046194622E749
:1010C00050EA410618BF52EA43067FF4C5AE50EA23
:1010D00041047FF40DAF52EA43057FF4EBAE12E713
:1010E0004A0011D212F5001211D20DD56FF47873A7
:1010F000B3EB62520ED44FEAC12343F0004343EAFC
:10110000505323FA02F070474FF00000704750EA46
:10111000013002D14FF0FF3070474FF000007047B0
:0811200008000020000000009F
:040000050800018965
:00000001FF
